:1000000000EF10F00000000000EF00F00000000022
:100010000000000000000000F3D7FFFFFFFFFFFF1C
:10002000FFFFFFFFFFFFFFFFFFFFFFFFFFFFFFFFE0
:10003000FFFFFFFFFFFFFFFFFFFFFFFFFFFFFFFFD0
:10004000FFFFFFFFFFFFFFFFFFFFFFFFFFFFFFFFC0
:10005000FFFFFFFFFFFFFFFFFFFFFFFFFFFFFFFFB0
:102000006FEC1CF00F015C6B93928A92989E999EE4
:10201000780EC86E88EC19F07A0E0B6EC10E0C6E3D
:10202000810E0D6E0D2EFED70C2EFCD70B2EFAD77F
:1020300000000000270E5D6E24EC19F04FEC16F046
:10204000030E5D6E5E6A2FEC1AF03B0E5D6E000EA5
:102050005E6EC4EC19F0030E5D6E010E5E6E2FEC29
:102060001AF0DEEC19F0000E011802E1000E001863
:1020700007E0350E5D6E000E5E6EC4EC19F0FFD702
:102080002F0E5D6E000E5E6EC4EC19F03D0E0B6EF1
:10209000E10E0C6E3F0E0D6E0D2EFED70C2EFCD7F2
:1020A0000B2EFAD7000000007A0E0B6EC10E0C6EDC
:1020B000810E0D6E0D2EFED70C2EFCD70B2EFAD7EF
:1020C00000000000150E716F000E726F1B0E736F13
:1020D000000E746FC9EC1AF000C019F001C01AF0BC
:1020E000000E011802E1000E00180DE04FEC16F092
:1020F0005D6A5E6A2FEC1AF0230E5D6E000E5E6E56
:10210000C4EC19F0D1D74FEC16F05D6A5E6A2FEC83
:102110001AF01F0E5D6E000E5E6EC4EC19F015C055
:1021200071F016C072F017C073F018C074F0020E90
:10213000756F4AEC1AF0410E5D6E000E5E6EC4ECD7
:1021400019F05D6A010E5E6E2FEC1AF0490E5D6E9D
:10215000000E5E6EC4EC19F01BC071F01CC072F072
:102160001DC073F01EC074F0020E756F4AEC1AF0B9
:10217000460E5D6E000E5E6EC4EC19F095D7FFD76B
:10218000F250026EF29E0500FF6A0150FE6E005092
:10219000FD6E02BEF28E1200C7B409D01F0EC51428
:1021A000016E0150000A03E1010E006E01D0006AC9
:1021B00012000AAE029E000E12000B820BAEE7EF79
:1021C00010F003680268016800680A360232FF0EE8
:1021D00012004DC0C5F04EC0C6F04FC0C7F050C091
:1021E000C8F00001C36BC46BC451120802E1C351B3
:1021F0008E0808E3D1DF005201E004D00001C34B98
:10220000C42BF2D70001120EC45D02E18F0EC35D34
:1022100003E37B0E006E24D0C580C5A020D04D50B6
:102220004E104F1050101AE0C551C611C711C811F9
:102230000EE16FC0E1FF70C0E2FF050EE66E6DC0FB
:1022400000F06EC001F09CDF010E006E09D0010E9F
:102250000001C55F000EC65BC75BC85BDED7006AC6
:1022600012000B840BAE3CEF11F0010E036E026AFC
:10227000016A006A0A360232FF0E1200C58412009B
:102280009E96C3C0C9FF4DC0C4F04EC0C5F04FC03C
:10229000C6F050C0C7F0C7A421D04D504E104F100B
:1022A00050101BE00001C451C511C611C7110EE149
:1022B0006FC0E1FF70C0E2FF040EE66E6DC000F07B
:1022C0006EC001F05DDF010E006E3AD0010E00011C
:1022D000C45F000EC55BC65BC75BDDD74DC0C4F0F5
:1022E0004EC0C5F04FC0C6F050C0C7F09EB621D05A
:1022F0004D504E104F1050101BE00001C451C5113D
:10230000C611C7110EE16FC0E1FF70C0E2FF040EFD
:10231000E66E6DC000F06EC001F032DF010E006E9F
:102320000FD0010E0001C45F000EC55BC65BC75B2A
:10233000DDD7C5BC02D0006A03D0C584020E006E92
:102340001200026A016A006A086A036A000E12003B
:102350000134083609360450085E0550D8A0053C03
:10236000095E003601360F0E0C6E01340836093650
:10237000045000A006D0085E0550D8A0053C095EB8
:1023800005D008260550D8B0053C09260036013690
:102390000C2EEBD700B006D0045008260550D8B05C
:1023A000053C09260000120032500001C111C26F25
:1023B00010DF34C0C3F00001C337C39161DFC2C076
:1023C000C3F05EDF5BDF030E0D6E0D2EFED7000047
:1023D0000000040E0001C111C26F3250C213F9DEB9
:1023E00034C0C3F00001C337C3914ADFC2C0C3F099
:1023F00047DF44DF030E0D6E0D2EFED700000000F8
:10240000FB0E0001C115C26F3250C213E2DE34C0B0
:10241000C3F00001C337C39133DFC2C0C3F030DF64
:102420002DDF030E0D6E0D2EFED7000000001200F2
:102430000CB05AEF12F00CA200EF13F00E6A000E6F
:10244000026471EF12F0F00E0214D8A43CEF12F007
:10245000023A01380F0B02260138F00B016E0038EA
:102460000F0B01260038F00B006E08380F0B00260A
:102470000838F00B086E0E84D89002BE55EF12F0AB
:1024800008360036013602360E2A02BE55EF12F02B
:1024900008360036013602360E2A02BE55EF12F01B
:1024A00008360036013602360E2A0E500364F6EF67
:1024B00012F0035E0BBC08AEFBEF12F0D880800E6A
:1024C00008640030000E002201220222D8A0FBEF97
:1024D00012F0023201320032034A00EF13F0FBEF38
:1024E00012F001C002F000C001F008C000F0086A5C
:1024F000000E0E860264A8EF12F0F00E0214D8A4AB
:1025000090EF12F0023A01380F0B02260138F00B5F
:10251000016E00380F0B01260038F00B006E0E84A0
:10252000D89002BE55EF12F00036013602360E2A60
:1025300002BE55EF12F00036013602360E2A02BEF8
:1025400055EF12F00036013602360E2A55EF12F022
:1025500001C002F000C001F0006A000E0E960E8865
:102560000264D5EF12F0F00E0214D8A4C0EF12F0FE
:10257000023A01380F0B02260138F00B016E0E846F
:10258000D89002BE55EF12F0013602360E2A02BE76
:1025900055EF12F0013602360E2A02BE55EF12F048
:1025A000013602360E2A55EF12F001C002F0016A20
:1025B000000E0E86026405EF13F0F00E0214D8A48C
:1025C000E4EF12F0023A0E84D89002BE55EF12F0FA
:1025D00002360E2A02BE55EF12F002360E2A02BE55
:1025E00055EF12F002360E2A55EF12F0010E0C6E66
:1025F00038DE08EF13F0020E0C6EDBDD08EF13F08F
:10260000040E0C6EDADD08EF13F0080E0C6E99DE86
:1026100012000B6A0B86FF0E12000B800BAE19EF37
:1026200013F0026A0AAEFF0E026E016E006E0A36E9
:102630000232FF0E12000B6A0A6A096A0050040295
:10264000F4CF09F0F3CF08F001500502F4CF0BF0FE
:10265000F3CF0AF000500502F3500926F4500A2285
:10266000E86A0B2201500402F3500926F4500A22B2
:10267000E86A0B2208C000F009C001F00AC002F0AD
:102680000BC003F012000C6A0E6A0250D8A45CEF73
:1026900013F001C002F000C001F0006A0E86025083
:1026A000D8A45CEF13F001C002F0016A0E960E8808
:1026B0000250D8B46EEF13F00E50035ED8A4D8A029
:1026C00073EF13F0D89002BE78EF13F000360136A6
:1026D0000236032E63EF13F073EF13F0010E0C6E4E
:1026E00030DE7BEF13F0020E0C6EBBDD7BEF13F0E0
:1026F000040E0C6E5EDD1200F00E0001BF15C16FFE
:10270000040E026EBFC000F0000E016E025005E024
:10271000003600900136FF0FFAD7F00E0016000EBB
:10272000011600C0C0F040DEC0C0C1F03DDE020EA8
:102730000C6E3D0E0D6E0D2EFED70C2EFCD700003C
:10274000000012000450000A08E10550000A05E1EB
:10275000FF0E006E7F0E016E57D00D6A096A086A7F
:1027600001500010D8B4000C015005180A6E0ABEC2
:102770000D1E0B6A05AE05D0041E051E042AD8B432
:10278000052A01AE05D0001E011E002AD8B4012A78
:10279000015005100A6E0ABE10D0DADD0BB020D051
:1027A0000DAE000C001E011E002AD8B4012A081E1E
:1027B000091E082AD8B4092A000C05AE0DD001BEA6
:1027C00007D00150096E0050086E016A006AE8D710
:1027D000016A006A002A000C011E001E0B2ADDD7C8
:1027E000082AD8B4092A0450085CD8A4D9D70550BF
:1027F000095CD8A4D5D7096A086A002AD8B4012A86
:1028000001AECED70000FF0C1200025006180E6E6B
:10281000086A096A0B6A03500764F8EF14F006505F
:102820000A6E068E028E03500B6E0750036E000E6A
:102830000B6448EF14F00B50075ED8B4E9EF14F0C6
:10284000070E0764B7EF14F0075E00C008F001C080
:1028500000F002C001F0026A074EE9EF14F00764CD
:102860008CEF14F0075E00C008F001C000F0016AB0
:10287000074EE9EF14F007646AEF14F0075E00C03A
:1028800008F0006A074EE9EF14F0076451EF14F006
:102890000AC002F005C001F004C000F0086A13EF9E
:1028A00016F0030E07645CEF14F0075E08380F0B98
:1028B000086E074EE9EF14F0D8900832074EE9EFA2
:1028C00014F0D8900832074EE9EF14F0D89008328F
:1028D000E9EF14F0030E07647BEF14F0075E08388D
:1028E0000F0B086E0038F00B082600380F0B006E37
:1028F000074EE9EF14F0D89000320832074EE9EFA6
:1029000014F0D89000320832074EE9EF14F0D89056
:1029100000320832E9EF14F0030E0764A3EF14F05D
:10292000075E08380F0B086E0038F00B08260038D9
:102930000F0B006E0138F00B002601380F0B016EF3
:10294000074EE9EF14F0D890013200320832074EFA
:10295000E9EF14F0D890013200320832074EE9EF67
:1029600014F0D890013200320832E9EF14F0030E6F
:102970000764D4EF14F0075E08380F0B086E0038B8
:10298000F00B082600380F0B006E0138F00B002604
:1029900001380F0B016E0238F00B012602380F0BC5
:1029A000026E074EE9EF14F0D89002320132003285
:1029B0000832074EE9EF14F0D890023201320032AB
:1029C0000832074EE9EF14F0D8900232013200329B
:1029D0000832096A000E0EAEDDEF15F0081E001E6B
:1029E000011E021E082A002201220222DDEF15F03C
:1029F0000750D8A4FEEF14F013EF16F0096A02C0D6
:102A00000AF0028E068E0750035C076ED8B4D0EF32
:102A100015F0070E07649EEF15F0075E0450096E6F
:102A20000550046E0650056E066A074ED0EF15F08D
:102A3000070E076473EF15F0075E0450096E05502A
:102A4000046E056A074ED0EF15F0070E076451EFCC
:102A500015F0075E0450096E046A074ED0EF15F0BA
:102A6000070E076438EF15F00AC002F013EF16F0F6
:102A7000030E076443EF15F0075E09380F0B096E6C
:102A8000074ED0EF15F0D8900932074ED0EF15F071
:102A9000D8900932074ED0EF15F0D8900932D0EF18
:102AA00015F0030E076462EF15F0075E09380F0B8F
:102AB000096E0438F00B092604380F0B046E074E1C
:102AC000D0EF15F0D89004320932074ED0EF15F050
:102AD000D89004320932074ED0EF15F0D890043266
:102AE0000932D0EF15F0030E07648AEF15F0075E88
:102AF00009380F0B096E0438F00B092604380F0B48
:102B0000046E0538F00B042605380F0B056E074ED2
:102B1000D0EF15F0D890053204320932074ED0EFCD
:102B200015F0D890053204320932074ED0EF15F077
:102B3000D890053204320932D0EF15F0030E076445
:102B4000BBEF15F0075E09380F0B096E0438F00B68
:102B5000092604380F0B046E0538F00B04260538DF
:102B60000F0B056E0638F00B052606380F0B066EA8
:102B7000074ED0EF15F0D8900632053204320932F4
:102B8000074ED0EF15F0D8900632053204320932E4
:102B9000074ED0EF15F0D8900632053204320932D4
:102BA000086A000E0EAEDDEF15F0091E041E051EAC
:102BB000061E092A0422052206220950082604506E
:102BC000002205500122065002220EBEF4EF15F03D
:102BD000D8A003EF16F00232013200320832033E71
:102BE00003EF16F00DEF16F0D8B008EF16F0000E58
:102BF000081E001E011E021E082A002201220222B7
:102C00000A7E08EF16F0010E0C6E12DC15EF16F0BE
:102C1000020E0C6E0DDC15EF16F0040E0C6EDDECE2
:102C200010F015EF16F0000E0C6E1200F00E000101
:102C3000BF15C16FC181040E026EBFC000F0000E4F
:102C4000016E025005E0003600900136FF0FFAD702
:102C5000F00E0016000E0116008000C0C0F0D4EC8B
:102C600011F0C0C0C1F0D4EC11F0020E0C6E3D0E9C
:102C70000D6E0D2EFED70C2EFCD7000000001200AA
:102C800000C008F00B6A0C6A9E0E036E0A6A026AA4
:102C9000016A006A020E0C6E18EC12F01200010EAE
:102CA0000001BF6F29DD3F0E0C6E550E0D6E0D2E0F
:102CB000FED70C2EFCD712008A949394020E0B6E52
:102CC000380E0C6EAD0E0D6E0D2EFED70C2EFCD7F1
:102CD0000B2EFAD79384030E0D6E0D2EFED7000037
:102CE00000001200067E91DD12000B6A0C6A0A6A6F
:102CF0000350D8B4AAEF16F00A9E028E860E035E29
:102D000003BE88EF16F0D8B488EF16F0ADEF16F0DA
:102D1000036C080E035CD8A096EF16F0036E023623
:102D2000026A0350D8A4D8909FEF16F00350D8B48D
:102D30009FEF16F0D8900232032E9AEF16F00BBCDC
:102D400002A0AAEF16F0D8A0AAEF16F0022AD8B473
:102D5000B4EF16F0016AB9EF16F00B800BAEBDEFC1
:102D600016F0016ABDEF16F0010E0C6E56DCBFEFD7
:102D700016F0000E0C6EBFEF16F0FF0E0C6E025038
:102D8000006E12000900F5CFE6FF0006FBE1010628
:102D9000F9E112000B6A0350D8B410EF17F002509B
:102DA0000A6E028E8E0E035E03AE14EF17F0036CF4
:102DB000080E035CD8A0EFEF16F0036E013602C0D8
:102DC00001F0026A080E035CD8A0EFEF16F0036E64
:102DD0000136016A0350D8A4D890F9EF16F00350D9
:102DE000D8B4F9EF16F0D89002320132032EF3EF87
:102DF00016F00BBC01A006EF17F0D8A006EF17F0F5
:102E0000012AD8B4022A02BE23EF17F00AAE29EF36
:102E100017F0021E011E012AD8B4022A29EF17F06A
:102E2000026A016A29EF17F00B800BAE2DEF17F045
:102E3000026A0AAE2DEF17F0FF0E026E016E0A361F
:102E400002322DEF17F0010E0C6E0DEC13F02FEF88
:102E500017F0000E0C6E2FEF17F0FF0E0C6E0150E6
:102E6000006E0250016E120000C008F00150006EAA
:102E7000016A026A036A0B6A0C6A016A026A036ADF
:102E8000960E036E0A6A00AE4CEF17F0081E001E85
:102E9000082AD8B4002A0A8E00C001F008C000F049
:102EA000086A026A43EC13F01200086A096A000E0D
:102EB00007620364DAEF17F0025006180A6E075033
:102EC00003267E0ED8A06BEF17F0035ED8B0DFEFBD
:102ED00017F06FEF17F0035ED8A0E4EF17F0028E43
:102EE000068E02C00EF001C00BF000C00DF00050C5
:102EF0000402F4CF0CF001500502F4CF00F0F3CF40
:102F000008F00402F3500C26F4500822000E0022B0
:102F10000D500502F3500C26F4500822000E00223A
:102F200002500402F3500826F45000220250050219
:102F3000016A000E0122F3500026F45001220D50C8
:102F40000602F3500826F4500022026A000E012205
:102F500002220B500602F3500026F4500122000E0C
:102F600002220E500602F3500126F450022202BE45
:102F7000C2EF17F008360036013602360306D8B421
:102F8000E4EF17F0D5EF17F0D880800E086400301A
:102F9000000E002201220222D8A0D5EF17F0023243
:102FA00001320032034ADFEF17F00AAE029E000E34
:102FB000E7EF17F0010EA1EC11F0E7EF17F0020EAA
:102FC000DDEC10F0E7EF17F0040E31EC11F0120019
:102FD0000450000A12E10550000A0FE10650000AF1
:102FE0000CE10750000A09E1FF0E006EFF0E016EB2
:102FF0007F0E026EFF0E036EA8D0086A096A0750A2
:10300000D8B493EF18F00350D8B498EF18F00250EA
:1030100006180A6E028E068E0E6A02C008F001C003
:103020000CF000C00DF004500D5E0550D8A0053C1A
:103030000C5E0650D8A0063C085E086A0C6A0D6A51
:10304000D8A02AEF18F0D8900232013200320832AC
:10305000010E0E6E0750035ED8A037EF18F07E0EFB
:103060000E240326D8B09DEF18F03DEF18F07E0E29
:103070000E240326D8A0A2EF18F0180E0B6E0D3602
:103080000C3608360036013602360E360450005E25
:103090000550D8A0053C015E0650D8A0063C025E53
:1030A00006340E120EA058EF18F00D8063EF18F0E2
:1030B000045000260550D8B0053C01260650D8B073
:1030C000062802260D900B2E3FEF18F089EF18F01E
:1030D000D8900036013602360E360450005E055098
:1030E000D8A0053C015E0650D8A0063C025E06341E
:1030F0000E10010B0D26D8B00C2AD8B4082AD8A47B
:1031000089EF18F008320C320D32032AD8B49DEF43
:1031100018F00AAE089E0850026E0C50016E0D5059
:10312000006EA5EF18F0010E09EC13F0A5EF18F0F2
:10313000020EA1EC11F0A5EF18F0040EDDEC10F07A
:10314000A5EF18F0080E31EC11F012000001AB6B86
:10315000AC6BAD6BAE6BAF6BB06BB16BB26BB36B9B
:10316000B46BB56BB66BB76BB86BB96BBA6BBB6B4B
:10317000BC6B800EAA19006E800E005C02E1000E8E
:10318000A95D11E22D0EBF6F51DDA9C000F0AAC0EC
:1031900001F0FF0E046EFF0E056E1BEC13F000C075
:1031A000A9F001C0AAF0AB0E0001BD6F000EBE6F0A
:1031B000BB51BD27D8B0BE2B0A0E046E000E056EA3
:1031C000A9C000F0AAC001F0A2EC13F008C000F002
:1031D00009C001F0300E0026BDC0E1FFBEC0E2FF15
:1031E00000C0E6FF0001BB2B0A0E046E000E056E48
:1031F000A9C000F0AAC001F0A2EC13F000C0A9F031
:1032000001C0AAF0800E026E800E0118025C02E17D
:1032100000500008C8E3010E0001BC6FBC51BB5D4B
:1032200012E3BC51BB5D006E016A000E015AAB0E89
:103230000024E96E000E0120EA6EEECFBFF0F6DC4E
:103240000001BC2BEBD712005DC034F0300E000142
:10325000C16FD4EC11F0470E0C6E1F0E0D6E0D2ECB
:10326000FED70C2EFCD700000000300E0001C16F0D
:10327000D4EC11F0470E0C6E1F0E0D6E0D2EFED706
:103280000C2EFCD700000000300E0001C16FD4EC02
:1032900011F0030E0C6E550E0D6E0D2EFED70C2E7A
:1032A000FCD7280E0001C16FD4EC11F0050E0B6E97
:1032B000DF0E0C6EBB0E0D6E0D2EFED70C2EFCD746
:1032C0000B2EFAD700000000280E0001BF6F7CEC27
:1032D00013F0050E0B6EDF0E0C6EBB0E0D6E0D2E79
:1032E000FED70C2EFCD70B2EFAD700000000080EDC
:1032F0000001BF6F7CEC13F0D2DC060E0001BF6F43
:103300007CEC13F00C0E0001BF6F7CEC13F012008C
:10331000980E0001696F210E6A6F000E6B6F000E30
:103320006C6FD20E656F210E666F000E676F000E18
:10333000686FFF0E556EFF0E566E000E576E000E34
:10334000586EFF0E516EFF0E526EFF0E536EFF0E43
:10335000546E800E596E220E5A6EC30E5B6E000EB6
:103360005C6E7C0E616F220E626F000E636F000E4A
:10337000646F939093928A908A9293809382C79E6F
:10338000C79C380EC66E12000001716B726B7151D2
:103390005D24E96E72515E20EA6EEE50000A0DE087
:1033A00071515D24E96E72515E20EA6EEECFBFF07E
:1033B0003DDC0001714B722BEAD71200010E5D6EED
:1033C0008A949384000EF2BE010E446E456AF29E0A
:1033D00073DC81A410D05DC000F05D2A00520AE1C8
:1033E00044B002D0F29E01D0F28EFF0E006EFF0EAE
:1033F000016E34D0EED7010E5D6E81B410D05DC089
:1034000000F05D2A00520AE144B002D0F29E01D0E1
:10341000F28EFF0E006EFF0E016E20D0EED744B08C
:1034200002D0F29E01D0F28E5DC000F029DC000EC9
:10343000046E000E056E200E066E850E076EC8DD4A
:10344000000E046E000E056E200E066E830E076ED3
:103450002CDD4BDC00C033F0006A016A12005E50C4
:10346000030801E216D0DA0E5E24F66E380EF76E0F
:10347000000EF722000EF86E000EF8220900F5CFBC
:1034800000F05D500026800E00100001BF6F7CEC44
:1034900013F012005D6A5E6A0001766B776B010EB5
:1034A000786F000E796F5F6A5F6A75515F5C10E23A
:1034B00078C000F079C001F00A0E046E000E056EAF
:1034C0001BEC13F000C078F001C079F05F2AEDD753
:1034D00071C000F072C001F073C002F074C003F05C
:1034E00059DC00C05DF001C05EF0BEDC00C004F03D
:1034F00001C005F002C006F003C007F071C000F083
:1035000072C001F073C002F074C003F072EC16F0E8
:1035100000C07AF001C07BF002C07CF003C07DF0F7
:1035200078C000F079C001F09FDC7AC004F07BC065
:1035300005F07CC006F07DC007F0B7DC2BDC00C0D6
:1035400076F001C077F0800E0118026E800E025CEA
:1035500002E1000E005C0EE276C000F077C001F0E0
:10356000FF0E046EFF0E056E1BEC13F000C076F02C
:1035700001C077F05DC0A9F05EC0AAF0E7DD2E0EB5
:10358000BF6F16EC16F076C0A9F077C0AAF0DEDDAA
:103590001200940EF66E380EF76E000EF86E750E71
:1035A000E16E000EE26E340E006E010E016EC2EC92
:1035B00016F0000EF2BE010E0001756F766BF29EE2
:1035C0005CEC16F081A407D0A4C000F0A42B00523C
:1035D00001E138D1F7D7010EA46F81B407D0A4C0A0
:1035E00000F0A42B005201E12DD1F7D7010EA46FFA
:1035F00081A407D0A4C000F0A42B005201E122D185
:10360000F7D7010EA46F81B407D0A4C000F0A42B9B
:10361000005201E117D1F7D7A56BA66B800EA61952
:10362000006E800E005C02E1280EA55D31E27C0E8A
:10363000A525E16E000EA621E26E010EE66E010EDA
:10364000A46F81A419D07C0EA525026E000EA621C0
:10365000036E02C0E9FF03C0EAFFEECF01F00150A4
:10366000010F006E02C0E1FF03C0E2FF00C0E6FFF1
:10367000015201E1E7D0E5D781B407D0A4C000F042
:10368000A42B005201E1DED0F7D7A54BA62BC6D75D
:10369000A56BA66B800EA619006E800E005C02E181
:1036A000280EA55D4CE2A76BA86B800EA819006ED2
:1036B000800E005C02E1080EA75D3CE2A751A52543
:1036C000006EA851A621016E7C0E0024E96E000E4A
:1036D0000120EA6EEE50335C2AE2080E046E000E02
:1036E000056EA5C000F0A6C001F0A2EC13F0770EA5
:1036F0000024026E000E0120036E0001A75107088E
:10370000006E00C001F0010E006E015004E00036B2
:103710000090FF0FFBD702C0E9FF03C0EAFFEE50A5
:10372000001202C0E1FF03C0E2FF00C0E6FFA74BAA
:10373000A82BBBD7080EA527000EA623ABD775B1C3
:1037400002D0F29E01D0F28E78C000F040EC16F06C
:10375000CD0E046ECC0E056E4C0E066E7B0E076E03
:1037600055EC17F000C05DF001C05EF002C05FF0E4
:1037700003C060F077C000F040EC16F05DC004F0CC
:103780005EC005F05FC006F060C007F005EC14F005
:1037900073C0E1FF74C0E2FF00C0E6FF01C0E6FFB6
:1037A00002C0E6FF03C0E6FF7AC000F040EC16F06E
:1037B000CD0E046ECC0E056E4C0E066E7B0E076EA3
:1037C00055EC17F000C05DF001C05EF002C05FF084
:1037D00003C060F079C000F040EC16F05DC004F06A
:1037E0005EC005F05FC006F060C007F005EC14F0A5
:1037F00071C0E1FF72C0E2FF00C0E6FF01C0E6FF5A
:1038000002C0E6FF03C0E6FF78517725006E016A2B
:10381000000E012279510026000E01227A51002467
:10382000026E000E0120036E000E031802E102502A
:103830007B1905E07BC000F0000E016E0CD0006A21
:10384000016A09D075B102D0F29E01D0F28EFF0E4E
:10385000006EFF0E016E120000000000000000006C
:103860000000543A20004448543131204572726FB0
:1038700072004F4B000814274552524F52004448E3
:10388000543131002043000000202500483A200038
:103890000000000000000000000000000000000028
:1038A0000000000000000000000000000000000018
:1038B0000000000000000000000000000000000008
:1038C00000000001000000000000000000000000F7
:1038D000000000000000000000000040145410EE42
:1038E00015F03C0E006E010E016E580EF66E380E8D
:1038F000F76E000EF86EC2EC16F01200FFFFFFFF2D
:020000040030CA
:0E00000000235F3CFFD381FF0FC00FE00F40D5
:00000001FF
