:1000000000EF10F00000000000EF00F00000000022
:100010000000000000000000F3D7FFFFFFFFFFFF1C
:10002000FFFFFFFFFFFFFFFFFFFFFFFFFFFFFFFFE0
:10003000FFFFFFFFFFFFFFFFFFFFFFFFFFFFFFFFD0
:10004000FFFFFFFFFFFFFFFFFFFFFFFFFFFFFFFFC0
:10005000FFFFFFFFFFFFFFFFFFFFFFFFFFFFFFFFB0
:102000006BEC1CF00F0EC16E93809382780EC86E3D
:1020100086EC19F07A0E0B6EC10E0C6E810E0D6EF1
:102020000D2EFED70C2EFCD70B2EFAD70000000089
:10203000270E5D6E22EC19F04DEC16F0030E5D6E6E
:102040005E6A2BEC1AF03B0E5D6E000E5E6EC2EC0B
:1020500019F0030E5D6E010E5E6E2BEC1AF0DCECD7
:1020600019F0000E011802E1000E001807E0350E0D
:102070005D6E000E5E6EC2EC19F0FFD72F0E5D6E26
:10208000000E5E6EC2EC19F03D0E0B6EE10E0C6E92
:102090003F0E0D6E0D2EFED70C2EFCD70B2EFAD751
:1020A000000000007A0E0B6EC10E0C6E810E0D6EDC
:1020B0000D2EFED70C2EFCD70B2EFAD700000000F9
:1020C000150E716F000E726F1B0E736F000E746F22
:1020D000C5EC1AF000C019F001C01AF0000E01188A
:1020E00002E1000E00180DE04DEC16F05D6A5E6A2C
:1020F0002BEC1AF0230E5D6E000E5E6EC2EC19F032
:10210000D1D74DEC16F05D6A5E6A2BEC1AF01F0E0B
:102110005D6E000E5E6EC2EC19F015C071F016C057
:1021200072F017C073F018C074F0020E756F46ECB1
:102130001AF0410E5D6E000E5E6EC2EC19F05D6A23
:10214000010E5E6E2BEC1AF0490E5D6E000E5E6E97
:10215000C2EC19F01BC071F01CC072F01DC073F00E
:102160001EC074F0020E756F46EC1AF0460E5D6EDE
:10217000000E5E6EC2EC19F095D7FFD7F250026EDA
:10218000F29E0500FF6A0150FE6E0050FD6E02BE19
:10219000F28E1200C7B409D01F0EC514016E015093
:1021A000000A03E1010E006E01D0006A12000AAEBF
:1021B000029E000E12000B820BAEE5EF10F00368DA
:1021C0000268016800680A360232FF0E12004DC034
:1021D000C5F04EC0C6F04FC0C7F050C0C8F00001F7
:1021E000C36BC46BC451120802E1C3518E0808E3EB
:1021F000D1DF005201E004D00001C34BC42BF2D761
:102200000001120EC45D02E18F0EC35D03E37B0E7D
:10221000006E24D0C580C5A020D04D504E104F1068
:1022200050101AE0C551C611C711C8110EE16FC098
:10223000E1FF70C0E2FF050EE66E6DC000F06EC0FB
:1022400001F09CDF010E006E09D0010E0001C55F98
:10225000000EC65BC75BC85BDED7006A12000B844A
:102260000BAE3AEF11F0010E036E026A016A006ACA
:102270000A360232FF0E1200C58412009E96C3C0B9
:10228000C9FF4DC0C4F04EC0C5F04FC0C6F050C02D
:10229000C7F0C7A421D04D504E104F1050101BE076
:1022A0000001C451C511C611C7110EE16FC0E1FF95
:1022B00070C0E2FF040EE66E6DC000F06EC001F06B
:1022C0005DDF010E006E3AD0010E0001C45F000E0A
:1022D000C55BC65BC75BDDD74DC0C4F04EC0C5F063
:1022E0004FC0C6F050C0C7F09EB621D04D504E1022
:1022F0004F1050101BE00001C451C511C611C71189
:102300000EE16FC0E1FF70C0E2FF040EE66E6DC02B
:1023100000F06EC001F032DF010E006E0FD0010E32
:102320000001C45F000EC55BC65BC75BDDD7C5BCE3
:1023300002D0006A03D0C584020E006E1200026A49
:10234000016A006A086A036A000E12000134083646
:1023500009360450085E0550D8A0053C095E0036D9
:1023600001360F0E0C6E013408360936045000A0F9
:1023700006D0085E0550D8A0053C095E05D00826A9
:102380000550D8B0053C0926003601360C2EEBD797
:1023900000B006D0045008260550D8B0053C0926E8
:1023A0000000120032500001C111C26F10DF34C0B2
:1023B000C3F00001C337C39161DFC2C0C3F05EDF69
:1023C0005BDF030E0D6E0D2EFED700000000040E25
:1023D0000001C111C26F3250C213F9DE34C0C3F024
:1023E0000001C337C3914ADFC2C0C3F047DF44DFF7
:1023F000030E0D6E0D2EFED700000000FB0E000137
:10240000C115C26F3250C213E2DE34C0C3F0000106
:10241000C337C39133DFC2C0C3F030DF2DDF030EFB
:102420000D6E0D2EFED70000000012000CB058EF0C
:1024300012F00CA2FEEF12F00E6A000E02646FEFB3
:1024400012F0F00E0214D8A43AEF12F0023A01385A
:102450000F0B02260138F00B016E00380F0B01261E
:102460000038F00B006E08380F0B00260838F00B10
:10247000086E0E84D89002BE53EF12F00836003674
:10248000013602360E2A02BE53EF12F0083600362D
:10249000013602360E2A02BE53EF12F0083600361D
:1024A000013602360E2A0E500364F4EF12F0035E7A
:1024B0000BBC08AEF9EF12F0D880800E0864003033
:1024C000000E002201220222D8A0F9EF12F00232FF
:1024D00001320032034AFEEF12F0F9EF12F001C0B0
:1024E00002F000C001F008C000F0086A000E0E867D
:1024F0000264A6EF12F0F00E0214D8A48EEF12F0D0
:10250000023A01380F0B02260138F00B016E003839
:102510000F0B01260038F00B006E0E84D89002BE1F
:1025200053EF12F00036013602360E2A02BE53EF88
:1025300012F00036013602360E2A02BE53EF12F0B8
:102540000036013602360E2A53EF12F001C002F0B7
:1025500000C001F0006A000E0E960E880264D3EFF0
:1025600012F0F00E0214D8A4BEEF12F0023A0138B5
:102570000F0B02260138F00B016E0E84D89002BEBC
:1025800053EF12F0013602360E2A02BE53EF12F05C
:10259000013602360E2A02BE53EF12F00136023621
:1025A0000E2A53EF12F001C002F0016A000E0E86EF
:1025B000026403EF13F0F00E0214D8A4E2EF12F05D
:1025C000023A0E84D89002BE53EF12F002360E2A61
:1025D00002BE53EF12F002360E2A02BE53EF12F083
:1025E00002360E2A53EF12F0010E0C6E38DE06EFA3
:1025F00013F0020E0C6EDBDD06EF13F0040E0C6E12
:10260000DADD06EF13F0080E0C6E99DE12000B6A8D
:102610000B86FF0E12000B800BAE17EF13F0026A51
:102620000AAEFF0E026E016E006E0A360232FF0E17
:1026300012000B6A0A6A096A00500402F4CF09F01A
:10264000F3CF08F001500502F4CF0BF0F3CF0AF0FE
:1026500000500502F3500926F4500A22E86A0B22C2
:1026600001500402F3500926F4500A22E86A0B22B2
:1026700008C000F009C001F00AC002F00BC003F06E
:1026800012000C6A0E6A0250D8A45AEF13F001C06F
:1026900002F000C001F0006A0E860250D8A45AEF82
:1026A00013F001C002F0016A0E960E880250D8B4F1
:1026B0006CEF13F00E50035ED8A4D8A071EF13F0A6
:1026C000D89002BE76EF13F0003601360236032EA4
:1026D00061EF13F071EF13F0010E0C6E30DE79EF45
:1026E00013F0020E0C6EBBDD79EF13F0040E0C6ECE
:1026F0005EDD1200F00E0001BF15C16F040E026E08
:10270000BFC000F0000E016E025005E000360090E0
:102710000136FF0FFAD7F00E0016000E011600C0AA
:10272000C0F040DEC0C0C1F03DDE020E0C6E3D0EBA
:102730000D6E0D2EFED70C2EFCD7000000001200EF
:102740000450000A08E10550000A05E1FF0E006E82
:102750007F0E016E57D00D6A096A086A0150001099
:10276000D8B4000C015005180A6E0ABE0D1E0B6A83
:1027700005AE05D0041E051E042AD8B4052A01AEF4
:1027800005D0001E011E002AD8B4012A01500510F0
:102790000A6E0ABE10D0DADD0BB020D00DAE000CF0
:1027A000001E011E002AD8B4012A081E091E082A8C
:1027B000D8B4092A000C05AE0DD001BE07D00150D7
:1027C000096E0050086E016A006AE8D7016A006A63
:1027D000002A000C011E001E0B2ADDD7082AD8B4DF
:1027E000092A0450085CD8A4D9D70550095CD8A49C
:1027F000D5D7096A086A002AD8B4012A01AECED713
:102800000000FF0C1200025006180E6E086A096ADA
:102810000B6A03500764F6EF14F006500A6E068E3A
:10282000028E03500B6E0750036E000E0B6446EFD2
:1028300014F00B50075ED8B4E7EF14F0070E0764EE
:10284000B5EF14F0075E00C008F001C000F002C050
:1028500001F0026A074EE7EF14F007648AEF14F004
:10286000075E00C008F001C000F0016A074EE7EF04
:1028700014F0076468EF14F0075E00C008F0006A07
:10288000074EE7EF14F007644FEF14F00AC002F0B0
:1028900005C001F004C000F0086A11EF16F0030E45
:1028A00007645AEF14F0075E08380F0B086E074EE6
:1028B000E7EF14F0D8900832074EE7EF14F0D89005
:1028C0000832074EE7EF14F0D8900832E7EF14F023
:1028D000030E076479EF14F0075E08380F0B086EDB
:1028E0000038F00B082600380F0B006E074EE7EF9C
:1028F00014F0D89000320832074EE7EF14F0D89069
:1029000000320832074EE7EF14F0D8900032083258
:10291000E7EF14F0030E0764A1EF14F0075E083828
:102920000F0B086E0038F00B082600380F0B006EF6
:102930000138F00B002601380F0B016E074EE7EF50
:1029400014F0D890013200320832074EE7EF14F04D
:10295000D890013200320832074EE7EF14F0D890D9
:10296000013200320832E7EF14F0030E0764D2EFB1
:1029700014F0075E08380F0B086E0038F00B0826BD
:1029800000380F0B006E0138F00B002601380F0BDA
:10299000016E0238F00B012602380F0B026E074E53
:1029A000E7EF14F0D8900232013200320832074EBD
:1029B000E7EF14F0D8900232013200320832074EAD
:1029C000E7EF14F0D8900232013200320832096A7F
:1029D000000E0EAEDBEF15F0081E001E011E021EDB
:1029E000082A002201220222DBEF15F00750D8A4AA
:1029F000FCEF14F011EF16F0096A02C00AF0028E23
:102A0000068E0750035C076ED8B4CEEF15F0070EA4
:102A100007649CEF15F0075E0450096E0550046EC4
:102A20000650056E066A074ECEEF15F0070E0764D6
:102A300071EF15F0075E0450096E0550046E056ACB
:102A4000074ECEEF15F0070E07644FEF15F0075E47
:102A50000450096E046A074ECEEF15F0070E0764A6
:102A600036EF15F00AC002F011EF16F0030E0764FE
:102A700041EF15F0075E09380F0B096E074ECEEFD8
:102A800015F0D8900932074ECEEF15F0D8900932E4
:102A9000074ECEEF15F0D8900932CEEF15F0030EA9
:102AA000076460EF15F0075E09380F0B096E0438F4
:102AB000F00B092604380F0B046E074ECEEF15F00D
:102AC000D89004320932074ECEEF15F0D890043278
:102AD0000932074ECEEF15F0D89004320932CEEF0E
:102AE00015F0030E076488EF15F0075E09380F0B29
:102AF000096E0438F00B092604380F0B046E0538F4
:102B0000F00B042605380F0B056E074ECEEF15F0BF
:102B1000D890053204320932074ECEEF15F0D89026
:102B2000053204320932074ECEEF15F0D890053247
:102B300004320932CEEF15F0030E0764B9EF15F039
:102B4000075E09380F0B096E0438F00B09260438AC
:102B50000F0B046E0538F00B042605380F0B056EBD
:102B60000638F00B052606380F0B066E074ECEEF23
:102B700015F0D8900632053204320932074ECEEFF6
:102B800015F0D8900632053204320932074ECEEFE6
:102B900015F0D8900632053204320932086A000E68
:102BA0000EAEDBEF15F0091E041E051E061E092AD7
:102BB000042205220622095008260450002205504E
:102BC0000122065002220EBEF2EF15F0D8A001EF4E
:102BD00016F00232013200320832033E01EF16F0E5
:102BE0000BEF16F0D8B006EF16F0000E081E001E10
:102BF000011E021E082A0022012202220A7E06EF7E
:102C000016F0010E0C6E12DC13EF16F0020E0C6EB5
:102C10000DDC13EF16F0040E0C6EDBEC10F013EF6E
:102C200016F0000E0C6E1200F00E0001BF15C16F01
:102C3000C181040E026EBFC000F0000E016E025092
:102C400005E0003600900136FF0FFAD7F00E0016AF
:102C5000000E0116008000C0C0F0D2EC11F0C0C020
:102C6000C1F0D2EC11F0020E0C6E3D0E0D6E0D2E69
:102C7000FED70C2EFCD700000000120000C008F0A8
:102C80000B6A0C6A9E0E036E0A6A026A016A006A87
:102C9000020E0C6E16EC12F01200010E0001BF6F56
:102CA00029DD3F0E0C6E550E0D6E0D2EFED70C2E2F
:102CB000FCD712008A949394020E0B6E380E0C6EA1
:102CC000AD0E0D6E0D2EFED70C2EFCD70B2EFAD7A7
:102CD0009384030E0D6E0D2EFED70000000012002F
:102CE000067E91DD12000B6A0C6A0A6A0350D8B4A2
:102CF000A8EF16F00A9E028E860E035E03BE86EFD4
:102D000016F0D8B486EF16F0ABEF16F0036C080E91
:102D1000035CD8A094EF16F0036E0236026A0350EB
:102D2000D8A4D8909DEF16F00350D8B49DEF16F0BC
:102D3000D8900232032E98EF16F00BBC02A0A8EF39
:102D400016F0D8A0A8EF16F0022AD8B4B2EF16F009
:102D5000016AB7EF16F00B800BAEBBEF16F0016AFD
:102D6000BBEF16F0010E0C6E56DCBDEF16F0000E38
:102D70000C6EBDEF16F0FF0E0C6E0250006E1200CE
:102D80000900F5CFE6FF0006FBE10106F9E11200BC
:102D90000B6A0350D8B40EEF17F002500A6E028E81
:102DA0008E0E035E03AE12EF17F0036C080E035C89
:102DB000D8A0EDEF16F0036E013602C001F0026AF2
:102DC000080E035CD8A0EDEF16F0036E0136016A21
:102DD0000350D8A4D890F7EF16F00350D8B4F7EF0B
:102DE00016F0D89002320132032EF1EF16F00BBC30
:102DF00001A004EF17F0D8A004EF17F0012AD8B40F
:102E0000022A02BE21EF17F00AAE27EF17F0021ECA
:102E1000011E012AD8B4022A27EF17F0026A016ABC
:102E200027EF17F00B800BAE2BEF17F0026A0AAEFC
:102E30002BEF17F0FF0E026E016E0A3602322BEFF7
:102E400017F0010E0C6E0BEC13F02DEF17F0000EC7
:102E50000C6E2DEF17F0FF0E0C6E0150006E02503D
:102E6000016E120000C008F00150006E016A026A93
:102E7000036A0B6A0C6A016A026A036A960E036EA1
:102E80000A6A00AE4AEF17F0081E001E082AD8B4DE
:102E9000002A0A8E00C001F008C000F0086A026A29
:102EA00041EC13F01200086A096A000E076203641D
:102EB000D8EF17F0025006180A6E075003267E0E50
:102EC000D8A069EF17F0035ED8B0DDEF17F06DEF13
:102ED00017F0035ED8A0E2EF17F0028E068E02C054
:102EE0000EF001C00BF000C00DF000500402F4CF52
:102EF0000CF001500502F4CF00F0F3CF08F004020B
:102F0000F3500C26F4500822000E00220D5005024A
:102F1000F3500C26F4500822000E00220250040246
:102F2000F3500826F450002202500502016A000EF8
:102F30000122F3500026F45001220D500602F350F6
:102F40000826F4500022026A000E012202220B50D1
:102F50000602F3500026F4500122000E02220E5009
:102F60000602F3500126F450022202BEC0EF17F011
:102F700008360036013602360306D8B4E2EF17F001
:102F8000D3EF17F0D880800E08640030000E0022C6
:102F900001220222D8A0D3EF17F002320132003210
:102FA000034ADDEF17F00AAE029E000EE5EF17F0C0
:102FB000010E9FEC11F0E5EF17F0020EDBEC10F0C4
:102FC000E5EF17F0040E2FEC11F012000450000A88
:102FD00012E10550000A0FE10650000A0CE107500B
:102FE000000A09E1FF0E006EFF0E016E7F0E026EF9
:102FF000FF0E036EA8D0086A096A0750D8B491EF93
:1030000018F00350D8B496EF18F0025006180A6E64
:10301000028E068E0E6A02C008F001C00CF000C0DD
:103020000DF004500D5E0550D8A0053C0C5E065016
:10303000D8A0063C085E086A0C6A0D6AD8A028EF82
:1030400018F0D8900232013200320832010E0E6EB2
:103050000750035ED8A035EF18F07E0E0E2403262D
:10306000D8B09BEF18F03BEF18F07E0E0E2403262D
:10307000D8A0A0EF18F0180E0B6E0D360C360836DF
:103080000036013602360E360450005E0550D8A0D8
:10309000053C015E0650D8A0063C025E06340E12C6
:1030A0000EA056EF18F00D8061EF18F004500026C6
:1030B0000550D8B0053C01260650D8B00628022697
:1030C0000D900B2E3DEF18F087EF18F0D8900036DA
:1030D000013602360E360450005E0550D8A0053C7D
:1030E000015E0650D8A0063C025E06340E10010BAD
:1030F0000D26D8B00C2AD8B4082AD8A487EF18F027
:1031000008320C320D32032AD8B49BEF18F00AAE05
:10311000089E0850026E0C50016E0D50006EA3EF19
:1031200018F0010E07EC13F0A3EF18F0020E9FEC5D
:1031300011F0A3EF18F0040EDBEC10F0A3EF18F081
:10314000080E2FEC11F012000001AB6BAC6BAD6BF5
:10315000AE6BAF6BB06BB16BB26BB36BB46BB56B8B
:10316000B66BB76BB86BB96BBA6BBB6BBC6B800ED5
:10317000AA19006E800E005C02E1000EA95D11E24A
:103180002D0EBF6F51DDA9C000F0AAC001F0FF0EE7
:10319000046EFF0E056E19EC13F000C0A9F001C01B
:1031A000AAF0AB0E0001BD6F000EBE6FBB51BD2774
:1031B000D8B0BE2B0A0E046E000E056EA9C000F03A
:1031C000AAC001F0A0EC13F008C000F009C001F0A3
:1031D000300E0026BDC0E1FFBEC0E2FF00C0E6FF2A
:1031E0000001BB2B0A0E046E000E056EA9C000F094
:1031F000AAC001F0A0EC13F000C0A9F001C0AAF031
:10320000800E026E800E0118025C02E10050000880
:10321000C8E3010E0001BC6FBC51BB5D12E3BC51A1
:10322000BB5D006E016A000E015AAB0E0024E96E10
:10323000000E0120EA6EEECFBFF0F6DC0001BC2BE1
:10324000EBD712005DC034F0300E0001C16FD2EC3C
:1032500011F0470E0C6E1F0E0D6E0D2EFED70C2EAC
:10326000FCD700000000300E0001C16FD2EC11F05D
:10327000470E0C6E1F0E0D6E0D2EFED70C2EFCD7BA
:1032800000000000300E0001C16FD2EC11F0030EFF
:103290000C6E550E0D6E0D2EFED70C2EFCD7280E83
:1032A0000001C16FD2EC11F0050E0B6EDF0E0C6E3B
:1032B000BB0E0D6E0D2EFED70C2EFCD70B2EFAD7A3
:1032C00000000000280E0001BF6F7AEC13F0050E1D
:1032D0000B6EDF0E0C6EBB0E0D6E0D2EFED70C2E80
:1032E000FCD70B2EFAD700000000080E0001BF6FBC
:1032F0007AEC13F0D2DC060E0001BF6F7AEC13F00B
:103300000C0E0001BF6F7AEC13F01200940E000156
:10331000696F210E6A6F000E6B6F000E6C6FCE0E20
:10332000656F210E666F000E676F000E686FFF0EEF
:10333000556EFF0E566E000E576E000E586EFF0E45
:10334000516EFF0E526EFF0E536EFF0E546E7C0ECA
:10335000596E220E5A6EC30E5B6E000E5C6E780EB6
:10336000616F220E626F000E636F000E646F9390A8
:1033700093928A908A9293809382C79EC79C380EBC
:10338000C66E12000001716B726B71515D24E96EA3
:1033900072515E20EA6EEE50000A0DE071515D241C
:1033A000E96E72515E20EA6EEECFBFF03DDC0001A7
:1033B000714B722BEAD71200010E5D6E000EF2BE49
:1033C000010E446E456AF29E75DC81A410D05DC08A
:1033D00000F05D2A00520AE144B002D0F29E01D012
:1033E000F28EFF0E006EFF0E016E34D0EED7010E8E
:1033F0005D6E81B410D05DC000F05D2A00520AE11C
:1034000044B002D0F29E01D0F28EFF0E006EFF0E8D
:10341000016E20D0EED744B002D0F29E01D0F28EE1
:103420005DC000F02BDC000E046E000E056E200E59
:10343000066E850E076ECADD000E046E000E056E68
:10344000200E066E830E076E2EDD4DDC00C033F0BD
:10345000006A016A12005E50030801E216D0D20E23
:103460005E24F66E380EF76E000EF722000EF86E30
:10347000000EF8220900F5CF00F05D500026800E06
:1034800000100001BF6F7AEC13F012005D6A5E6AF3
:103490000001766B776B010E786F000E796F5F6AB3
:1034A0005F6A75515F5C10E278C000F079C001F08E
:1034B0000A0E046E000E056E19EC13F000C078F0D1
:1034C00001C079F05F2AEDD771C000F072C001F041
:1034D00073C002F074C003F05BDC00C05DF001C09B
:1034E0005EF0C0DC00C004F001C005F002C006F0D0
:1034F00003C007F071C000F072C001F073C002F0A9
:1035000074C003F070EC16F000C07AF001C07BF0DC
:1035100002C07CF003C07DF078C000F079C001F0FB
:10352000A1DC7AC004F07BC005F07CC006F07DC051
:1035300007F0B9DC2DDC00C076F001C077F0800E1A
:103540000118026E800E025C02E1000E005C0EE2C9
:1035500076C000F077C001F0FF0E046EFF0E056E1E
:1035600019EC13F000C076F001C077F05DC0A9F04F
:103570005EC0AAF0E9DD2E0EBF6F14EC16F076C027
:10358000A9F077C0AAF0E0DD12008C0EF66E380EBE
:10359000F76E000EF86E750EE16E000EE26E340EE0
:1035A000006E010E016EC0EC16F0000EF2BE010EB0
:1035B0000001756F766BF29E5AEC16F081A407D06D
:1035C000A4C000F0A42B005201E138D1F7D7010EBE
:1035D000A46F81B407D0A4C000F0A42B005201E175
:1035E0002DD1F7D7010EA46F81A407D0A4C000F09D
:1035F000A42B005201E122D1F7D7010EA46F81B4B0
:1036000007D0A4C000F0A42B005201E117D1F7D7D6
:10361000A56BA66B800EA619006E800E005C02E101
:10362000280EA55D31E27C0EA525E16E000EA621D7
:10363000E26E010EE66E010EA46F81A419D07C0E1D
:10364000A525026E000EA621036E02C0E9FF03C08D
:10365000EAFFEECF01F00150010F006E02C0E1FF62
:1036600003C0E2FF00C0E6FF015201E1E7D0E5D769
:1036700081B407D0A4C000F0A42B005201E1DED039
:10368000F7D7A54BA62BC6D7A56BA66B800EA619A0
:10369000006E800E005C02E1280EA55D4CE2A76B77
:1036A000A86B800EA819006E800E005C02E1080E67
:1036B000A75D3CE2A751A525006EA851A621016E89
:1036C0007C0E0024E96E000E0120EA6EEE50335CA1
:1036D0002AE2080E046E000E056EA5C000F0A6C01A
:1036E00001F0A0EC13F0770E0024026E000E012012
:1036F000036E0001A7510708006E00C001F0010E23
:10370000006E015004E000360090FF0FFBD702C0AE
:10371000E9FF03C0EAFFEE50001202C0E1FF03C060
:10372000E2FF00C0E6FFA74BA82BBBD7080EA527DA
:10373000000EA623ABD775B102D0F29E01D0F28E57
:1037400078C000F03EEC16F0CD0E046ECC0E056E87
:103750004C0E066E7B0E076E53EC17F000C05DF04A
:1037600001C05EF002C05FF003C060F077C000F0FF
:103770003EEC16F05DC004F05EC005F05FC006F0E0
:1037800060C007F003EC14F073C0E1FF74C0E2FF07
:1037900000C0E6FF01C0E6FF02C0E6FF03C0E6FF8F
:1037A0007AC000F03EEC16F0CD0E046ECC0E056E25
:1037B0004C0E066E7B0E076E53EC17F000C05DF0EA
:1037C00001C05EF002C05FF003C060F079C000F09D
:1037D0003EEC16F05DC004F05EC005F05FC006F080
:1037E00060C007F003EC14F071C0E1FF72C0E2FFAB
:1037F00000C0E6FF01C0E6FF02C0E6FF03C0E6FF2F
:1038000078517725006E016A000E01227951002659
:10381000000E01227A510024026E000E0120036E78
:10382000000E031802E102507B1905E07BC000F096
:10383000000E016E0CD0006A016A09D075B102D089
:10384000F29E01D0F28EFF0E006EFF0E016E12008E
:1038500000000000000000000000543A200044482E
:10386000543131204572726F72004F4B000814279B
:103870004552524F52004448543131002043000019
:1038800000202500483A2000000000000000000051
:103890000000000000000000000000000000000028
:1038A0000000000000000000000000000000000018
:1038B0000000000000000000000000010000000007
:1038C00000000000000000000000000000000000F8
:1038D00000000040145410EE15F03C0E006E010E76
:1038E000016E500EF66E380EF76E000EF86EC0ECDC
:1038F00016F01200FFFFFFFFFFFFFFFFFFFFFFFFBC
:020000040030CA
:0E000000244E2E1EFF8181FF0FC00FE00F4027
:00000001FF
